{
  "_format": "hh-sol-artifact-1",
  "contractName": "BadgeRegistry",
  "sourceName": "contracts/BadgeRegistry.sol",
  "abi": [
    {
      "inputs": [],
      "name": "BadgeAlreadyRegistered",
      "type": "error"
    },
    {
      "anonymous": false,
      "inputs": [
        {
          "indexed": true,
          "internalType": "bytes32",
          "name": "badgeId",
          "type": "bytes32"
        },
        {
          "indexed": true,
          "internalType": "address",
          "name": "issuer",
          "type": "address"
        },
        {
          "indexed": false,
          "internalType": "string",
          "name": "name",
          "type": "string"
        }
      ],
      "name": "BadgeRegistered",
      "type": "event"
    },
    {
      "inputs": [
        {
          "internalType": "bytes32",
          "name": "badgeId",
          "type": "bytes32"
        }
      ],
      "name": "badgeExists",
      "outputs": [
        {
          "internalType": "bool",
          "name": "",
          "type": "bool"
        }
      ],
      "stateMutability": "view",
      "type": "function"
    },
    {
      "inputs": [
        {
          "internalType": "bytes32",
          "name": "",
          "type": "bytes32"
        }
      ],
      "name": "badges",
      "outputs": [
        {
          "internalType": "string",
          "name": "name",
          "type": "string"
        },
        {
          "internalType": "string",
          "name": "description",
          "type": "string"
        },
        {
          "internalType": "string",
          "name": "metadata",
          "type": "string"
        },
        {
          "internalType": "bytes",
          "name": "data",
          "type": "bytes"
        }
      ],
      "stateMutability": "view",
      "type": "function"
    },
    {
      "inputs": [
        {
          "components": [
            {
              "internalType": "string",
              "name": "name",
              "type": "string"
            },
            {
              "internalType": "string",
              "name": "description",
              "type": "string"
            },
            {
              "internalType": "string",
              "name": "metadata",
              "type": "string"
            },
            {
              "internalType": "bytes",
              "name": "data",
              "type": "bytes"
            }
          ],
          "internalType": "struct IBadgeRegistry.Badge",
          "name": "badge",
          "type": "tuple"
        }
      ],
      "name": "create",
      "outputs": [
        {
          "internalType": "bytes32",
          "name": "",
          "type": "bytes32"
        }
      ],
      "stateMutability": "nonpayable",
      "type": "function"
    },
    {
      "inputs": [
        {
          "components": [
            {
              "internalType": "string",
              "name": "name",
              "type": "string"
            },
            {
              "internalType": "string",
              "name": "description",
              "type": "string"
            },
            {
              "internalType": "string",
              "name": "metadata",
              "type": "string"
            },
            {
              "internalType": "bytes",
              "name": "data",
              "type": "bytes"
            }
          ],
          "internalType": "struct IBadgeRegistry.Badge",
          "name": "badge",
          "type": "tuple"
        }
      ],
      "name": "generateId",
      "outputs": [
        {
          "internalType": "bytes32",
          "name": "",
          "type": "bytes32"
        }
      ],
      "stateMutability": "pure",
      "type": "function"
    },
    {
      "inputs": [
        {
          "internalType": "bytes32",
          "name": "badgeId",
          "type": "bytes32"
        }
      ],
      "name": "getBadge",
      "outputs": [
        {
          "components": [
            {
              "internalType": "string",
              "name": "name",
              "type": "string"
            },
            {
              "internalType": "string",
              "name": "description",
              "type": "string"
            },
            {
              "internalType": "string",
              "name": "metadata",
              "type": "string"
            },
            {
              "internalType": "bytes",
              "name": "data",
              "type": "bytes"
            }
          ],
          "internalType": "struct IBadgeRegistry.Badge",
          "name": "",
          "type": "tuple"
        }
      ],
      "stateMutability": "view",
      "type": "function"
    }
  ],
  "bytecode": "0x6080604052348015600f57600080fd5b506113a28061001f6000396000f3fe608060405234801561001057600080fd5b50600436106100575760003560e01c806377002fcf1461005c578063af4bd7431461008c578063c094224a146100bc578063f57e1c4d146100ec578063f72c59e71461011c575b600080fd5b610076600480360381019061007191906107cc565b61014f565b6040516100839190610956565b60405180910390f35b6100a660048036038101906100a191906107cc565b6103c3565b6040516100b39190610993565b60405180910390f35b6100d660048036038101906100d191906109d2565b6103f0565b6040516100e39190610a2a565b60405180910390f35b610106600480360381019061010191906109d2565b610420565b6040516101139190610a2a565b60405180910390f35b610136600480360381019061013191906107cc565b610514565b6040516101469493929190610ad9565b60405180910390f35b610157610764565b60008083815260200190815260200160002060405180608001604052908160008201805461018490610b69565b80601f01602080910402602001604051908101604052809291908181526020018280546101b090610b69565b80156101fd5780601f106101d2576101008083540402835291602001916101fd565b820191906000526020600020905b8154815290600101906020018083116101e057829003601f168201915b5050505050815260200160018201805461021690610b69565b80601f016020809104026020016040519081016040528092919081815260200182805461024290610b69565b801561028f5780601f106102645761010080835404028352916020019161028f565b820191906000526020600020905b81548152906001019060200180831161027257829003601f168201915b505050505081526020016002820180546102a890610b69565b80601f01602080910402602001604051908101604052809291908181526020018280546102d490610b69565b80156103215780601f106102f657610100808354040283529160200191610321565b820191906000526020600020905b81548152906001019060200180831161030457829003601f168201915b5050505050815260200160038201805461033a90610b69565b80601f016020809104026020016040519081016040528092919081815260200182805461036690610b69565b80156103b35780601f10610388576101008083540402835291602001916103b3565b820191906000526020600020905b81548152906001019060200180831161039657829003601f168201915b5050505050815250509050919050565b60008060008084815260200190815260200160002060000180546103e690610b69565b9050119050919050565b6000816040516020016104039190610d78565b604051602081830303815290604052805190602001209050919050565b60008061042c836103f0565b90506000806000838152602001908152602001600020600001805461045090610b69565b9050111561048a576040517f22aeae7400000000000000000000000000000000000000000000000000000000815260040160405180910390fd5b8260008083815260200190815260200160002081816104a9919061130d565b9050503373ffffffffffffffffffffffffffffffffffffffff16817fab0196a8d5b76ef15cc759da37709dc819b1ed2c2a947746c1f2cbd1779fba528580600001906104f59190610da9565b604051610503929190611348565b60405180910390a380915050919050565b600060205280600052604060002060009150905080600001805461053790610b69565b80601f016020809104026020016040519081016040528092919081815260200182805461056390610b69565b80156105b05780601f10610585576101008083540402835291602001916105b0565b820191906000526020600020905b81548152906001019060200180831161059357829003601f168201915b5050505050908060010180546105c590610b69565b80601f01602080910402602001604051908101604052809291908181526020018280546105f190610b69565b801561063e5780601f106106135761010080835404028352916020019161063e565b820191906000526020600020905b81548152906001019060200180831161062157829003601f168201915b50505050509080600201805461065390610b69565b80601f016020809104026020016040519081016040528092919081815260200182805461067f90610b69565b80156106cc5780601f106106a1576101008083540402835291602001916106cc565b820191906000526020600020905b8154815290600101906020018083116106af57829003601f168201915b5050505050908060030180546106e190610b69565b80601f016020809104026020016040519081016040528092919081815260200182805461070d90610b69565b801561075a5780601f1061072f5761010080835404028352916020019161075a565b820191906000526020600020905b81548152906001019060200180831161073d57829003601f168201915b5050505050905084565b6040518060800160405280606081526020016060815260200160608152602001606081525090565b600080fd5b600080fd5b6000819050919050565b6107a981610796565b81146107b457600080fd5b50565b6000813590506107c6816107a0565b92915050565b6000602082840312156107e2576107e161078c565b5b60006107f0848285016107b7565b91505092915050565b600081519050919050565b600082825260208201905092915050565b60005b83811015610833578082015181840152602081019050610818565b60008484015250505050565b6000601f19601f8301169050919050565b600061085b826107f9565b6108658185610804565b9350610875818560208601610815565b61087e8161083f565b840191505092915050565b600081519050919050565b600082825260208201905092915050565b60006108b082610889565b6108ba8185610894565b93506108ca818560208601610815565b6108d38161083f565b840191505092915050565b600060808301600083015184820360008601526108fb8282610850565b915050602083015184820360208601526109158282610850565b9150506040830151848203604086015261092f8282610850565b9150506060830151848203606086015261094982826108a5565b9150508091505092915050565b6000602082019050818103600083015261097081846108de565b905092915050565b60008115159050919050565b61098d81610978565b82525050565b60006020820190506109a86000830184610984565b92915050565b600080fd5b6000608082840312156109c9576109c86109ae565b5b81905092915050565b6000602082840312156109e8576109e761078c565b5b600082013567ffffffffffffffff811115610a0657610a05610791565b5b610a12848285016109b3565b91505092915050565b610a2481610796565b82525050565b6000602082019050610a3f6000830184610a1b565b92915050565b600082825260208201905092915050565b6000610a61826107f9565b610a6b8185610a45565b9350610a7b818560208601610815565b610a848161083f565b840191505092915050565b600082825260208201905092915050565b6000610aab82610889565b610ab58185610a8f565b9350610ac5818560208601610815565b610ace8161083f565b840191505092915050565b60006080820190508181036000830152610af38187610a56565b90508181036020830152610b078186610a56565b90508181036040830152610b1b8185610a56565b90508181036060830152610b2f8184610aa0565b905095945050505050565b7f4e487b7100000000000000000000000000000000000000000000000000000000600052602260045260246000fd5b60006002820490506001821680610b8157607f821691505b602082108103610b9457610b93610b3a565b5b50919050565b600080fd5b600080fd5b600080fd5b60008083356001602003843603038112610bc657610bc5610ba4565b5b83810192508235915060208301925067ffffffffffffffff821115610bee57610bed610b9a565b5b600182023603831315610c0457610c03610b9f565b5b509250929050565b82818337600083830152505050565b6000610c278385610804565b9350610c34838584610c0c565b610c3d8361083f565b840190509392505050565b60008083356001602003843603038112610c6557610c64610ba4565b5b83810192508235915060208301925067ffffffffffffffff821115610c8d57610c8c610b9a565b5b600182023603831315610ca357610ca2610b9f565b5b509250929050565b6000610cb78385610894565b9350610cc4838584610c0c565b610ccd8361083f565b840190509392505050565b600060808301610ceb6000840184610ba9565b8583036000870152610cfe838284610c1b565b92505050610d0f6020840184610ba9565b8583036020870152610d22838284610c1b565b92505050610d336040840184610ba9565b8583036040870152610d46838284610c1b565b92505050610d576060840184610c48565b8583036060870152610d6a838284610cab565b925050508091505092915050565b60006020820190508181036000830152610d928184610cd8565b905092915050565b600080fd5b600080fd5b600080fd5b60008083356001602003843603038112610dc657610dc5610d9a565b5b80840192508235915067ffffffffffffffff821115610de857610de7610d9f565b5b602083019250600182023603831315610e0457610e03610da4565b5b509250929050565b600082905092915050565b7f4e487b7100000000000000000000000000000000000000000000000000000000600052604160045260246000fd5b60008190508160005260206000209050919050565b60006020601f8301049050919050565b600082821b905092915050565b600060088302610ea87fffffffffffffffffffffffffffffffffffffffffffffffffffffffffffffffff82610e6b565b610eb28683610e6b565b95508019841693508086168417925050509392505050565b6000819050919050565b6000819050919050565b6000610ef9610ef4610eef84610eca565b610ed4565b610eca565b9050919050565b6000819050919050565b610f1383610ede565b610f27610f1f82610f00565b848454610e78565b825550505050565b600090565b610f3c610f2f565b610f47818484610f0a565b505050565b5b81811015610f6b57610f60600082610f34565b600181019050610f4d565b5050565b601f821115610fb057610f8181610e46565b610f8a84610e5b565b81016020851015610f99578190505b610fad610fa585610e5b565b830182610f4c565b50505b505050565b600082821c905092915050565b6000610fd360001984600802610fb5565b1980831691505092915050565b6000610fec8383610fc2565b9150826002028217905092915050565b6110068383610e0c565b67ffffffffffffffff81111561101f5761101e610e17565b5b6110298254610b69565b611034828285610f6f565b6000601f8311600181146110635760008415611051578287013590505b61105b8582610fe0565b8655506110c3565b601f19841661107186610e46565b60005b8281101561109957848901358255600182019150602085019450602081019050611074565b868310156110b657848901356110b2601f891682610fc2565b8355505b6001600288020188555050505b50505050505050565b6110d7838383610ffc565b505050565b600080833560016020038436030381126110f9576110f8610d9a565b5b80840192508235915067ffffffffffffffff82111561111b5761111a610d9f565b5b60208301925060018202360383131561113757611136610da4565b5b509250929050565b600082905092915050565b60008190508160005260206000209050919050565b601f8211156111a0576111718161114a565b61117a84610e5b565b81016020851015611189578190505b61119d61119585610e5b565b830182610f4c565b50505b505050565b6111af838361113f565b67ffffffffffffffff8111156111c8576111c7610e17565b5b6111d28254610b69565b6111dd82828561115f565b6000601f83116001811461120c57600084156111fa578287013590505b6112048582610fe0565b86555061126c565b601f19841661121a8661114a565b60005b828110156112425784890135825560018201915060208501945060208101905061121d565b8683101561125f578489013561125b601f891682610fc2565b8355505b6001600288020188555050505b50505050505050565b6112808383836111a5565b505050565b60008101600083016112978185610da9565b6112a28183866110cc565b5050505060018101602083016112b88185610da9565b6112c38183866110cc565b5050505060028101604083016112d98185610da9565b6112e48183866110cc565b5050505060038101606083016112fa81856110dc565b611305818386611275565b505050505050565b6113178282611285565b5050565b60006113278385610a45565b9350611334838584610c0c565b61133d8361083f565b840190509392505050565b6000602082019050818103600083015261136381848661131b565b9050939250505056fea26469706673582212204cd16fcc0091c30644444b642f4dcea84233f53c3c31bfc7bd5169972101d64164736f6c63430008190033",
  "linkReferences": {},
  "deployedLinkReferences": {}
}