{
  "_format": "hh-sol-artifact-1",
  "contractName": "GrantRegistry",
  "sourceName": "contracts/GrantRegistry.sol",
  "abi": [
    {
      "inputs": [],
      "name": "GrantAlreadyExists",
      "type": "error"
    },
    {
      "inputs": [],
      "name": "GrantNonExistant",
      "type": "error"
    },
    {
      "inputs": [],
      "name": "InvalidGrantManager",
      "type": "error"
    },
    {
      "anonymous": false,
      "inputs": [
        {
          "indexed": true,
          "internalType": "bytes32",
          "name": "grantId",
          "type": "bytes32"
        }
      ],
      "name": "GrantDeleted",
      "type": "event"
    },
    {
      "anonymous": false,
      "inputs": [
        {
          "indexed": true,
          "internalType": "bytes32",
          "name": "grantId",
          "type": "bytes32"
        },
        {
          "indexed": true,
          "internalType": "address",
          "name": "oldManager",
          "type": "address"
        },
        {
          "indexed": true,
          "internalType": "address",
          "name": "newManager",
          "type": "address"
        }
      ],
      "name": "GrantManagerChanged",
      "type": "event"
    },
    {
      "anonymous": false,
      "inputs": [
        {
          "indexed": true,
          "internalType": "bytes32",
          "name": "grantId",
          "type": "bytes32"
        },
        {
          "indexed": true,
          "internalType": "address",
          "name": "manager",
          "type": "address"
        }
      ],
      "name": "GrantRegistered",
      "type": "event"
    },
    {
      "anonymous": false,
      "inputs": [
        {
          "indexed": true,
          "internalType": "bytes32",
          "name": "grantId",
          "type": "bytes32"
        },
        {
          "indexed": false,
          "internalType": "enum IGrantRegistry.Status",
          "name": "status",
          "type": "uint8"
        }
      ],
      "name": "GrantUpdated",
      "type": "event"
    },
    {
      "inputs": [
        {
          "components": [
            {
              "internalType": "uint256",
              "name": "chain",
              "type": "uint256"
            },
            {
              "internalType": "address",
              "name": "grantee",
              "type": "address"
            },
            {
              "internalType": "string",
              "name": "grantProgramLabel",
              "type": "string"
            },
            {
              "internalType": "string",
              "name": "project",
              "type": "string"
            },
            {
              "internalType": "string[]",
              "name": "externalLinks",
              "type": "string[]"
            },
            {
              "internalType": "uint256",
              "name": "startDate",
              "type": "uint256"
            },
            {
              "internalType": "uint256",
              "name": "endDate",
              "type": "uint256"
            },
            {
              "internalType": "enum IGrantRegistry.Status",
              "name": "status",
              "type": "uint8"
            },
            {
              "components": [
                {
                  "internalType": "address[]",
                  "name": "fundingTokens",
                  "type": "address[]"
                },
                {
                  "internalType": "uint256[]",
                  "name": "fundingAmounts",
                  "type": "uint256[]"
                },
                {
                  "internalType": "bool[]",
                  "name": "disbursed",
                  "type": "bool[]"
                }
              ],
              "internalType": "struct IGrantRegistry.Disbursement",
              "name": "disbursements",
              "type": "tuple"
            }
          ],
          "internalType": "struct IGrantRegistry.Grant",
          "name": "grant",
          "type": "tuple"
        }
      ],
      "name": "generateId",
      "outputs": [
        {
          "internalType": "bytes32",
          "name": "",
          "type": "bytes32"
        }
      ],
      "stateMutability": "pure",
      "type": "function"
    },
    {
      "inputs": [
        {
          "internalType": "bytes32",
          "name": "grantId",
          "type": "bytes32"
        }
      ],
      "name": "getGrant",
      "outputs": [
        {
          "components": [
            {
              "internalType": "uint256",
              "name": "chain",
              "type": "uint256"
            },
            {
              "internalType": "address",
              "name": "grantee",
              "type": "address"
            },
            {
              "internalType": "string",
              "name": "grantProgramLabel",
              "type": "string"
            },
            {
              "internalType": "string",
              "name": "project",
              "type": "string"
            },
            {
              "internalType": "string[]",
              "name": "externalLinks",
              "type": "string[]"
            },
            {
              "internalType": "uint256",
              "name": "startDate",
              "type": "uint256"
            },
            {
              "internalType": "uint256",
              "name": "endDate",
              "type": "uint256"
            },
            {
              "internalType": "enum IGrantRegistry.Status",
              "name": "status",
              "type": "uint8"
            },
            {
              "components": [
                {
                  "internalType": "address[]",
                  "name": "fundingTokens",
                  "type": "address[]"
                },
                {
                  "internalType": "uint256[]",
                  "name": "fundingAmounts",
                  "type": "uint256[]"
                },
                {
                  "internalType": "bool[]",
                  "name": "disbursed",
                  "type": "bool[]"
                }
              ],
              "internalType": "struct IGrantRegistry.Disbursement",
              "name": "disbursements",
              "type": "tuple"
            }
          ],
          "internalType": "struct IGrantRegistry.Grant",
          "name": "",
          "type": "tuple"
        }
      ],
      "stateMutability": "view",
      "type": "function"
    },
    {
      "inputs": [
        {
          "internalType": "bytes32",
          "name": "grantId",
          "type": "bytes32"
        }
      ],
      "name": "getManager",
      "outputs": [
        {
          "internalType": "address",
          "name": "",
          "type": "address"
        }
      ],
      "stateMutability": "view",
      "type": "function"
    },
    {
      "inputs": [
        {
          "components": [
            {
              "internalType": "uint256",
              "name": "chain",
              "type": "uint256"
            },
            {
              "internalType": "address",
              "name": "grantee",
              "type": "address"
            },
            {
              "internalType": "string",
              "name": "grantProgramLabel",
              "type": "string"
            },
            {
              "internalType": "string",
              "name": "project",
              "type": "string"
            },
            {
              "internalType": "string[]",
              "name": "externalLinks",
              "type": "string[]"
            },
            {
              "internalType": "uint256",
              "name": "startDate",
              "type": "uint256"
            },
            {
              "internalType": "uint256",
              "name": "endDate",
              "type": "uint256"
            },
            {
              "internalType": "enum IGrantRegistry.Status",
              "name": "status",
              "type": "uint8"
            },
            {
              "components": [
                {
                  "internalType": "address[]",
                  "name": "fundingTokens",
                  "type": "address[]"
                },
                {
                  "internalType": "uint256[]",
                  "name": "fundingAmounts",
                  "type": "uint256[]"
                },
                {
                  "internalType": "bool[]",
                  "name": "disbursed",
                  "type": "bool[]"
                }
              ],
              "internalType": "struct IGrantRegistry.Disbursement",
              "name": "disbursements",
              "type": "tuple"
            }
          ],
          "internalType": "struct IGrantRegistry.Grant",
          "name": "grant",
          "type": "tuple"
        },
        {
          "internalType": "address",
          "name": "manager",
          "type": "address"
        }
      ],
      "name": "register",
      "outputs": [
        {
          "internalType": "bytes32",
          "name": "",
          "type": "bytes32"
        }
      ],
      "stateMutability": "nonpayable",
      "type": "function"
    },
    {
      "inputs": [
        {
          "internalType": "bytes32",
          "name": "grantId",
          "type": "bytes32"
        }
      ],
      "name": "remove",
      "outputs": [],
      "stateMutability": "nonpayable",
      "type": "function"
    },
    {
      "inputs": [
        {
          "internalType": "bytes32",
          "name": "grantId",
          "type": "bytes32"
        },
        {
          "internalType": "address",
          "name": "newManager",
          "type": "address"
        }
      ],
      "name": "transferOwnership",
      "outputs": [],
      "stateMutability": "nonpayable",
      "type": "function"
    },
    {
      "inputs": [
        {
          "internalType": "bytes32",
          "name": "grantId",
          "type": "bytes32"
        },
        {
          "components": [
            {
              "internalType": "uint256",
              "name": "chain",
              "type": "uint256"
            },
            {
              "internalType": "address",
              "name": "grantee",
              "type": "address"
            },
            {
              "internalType": "string",
              "name": "grantProgramLabel",
              "type": "string"
            },
            {
              "internalType": "string",
              "name": "project",
              "type": "string"
            },
            {
              "internalType": "string[]",
              "name": "externalLinks",
              "type": "string[]"
            },
            {
              "internalType": "uint256",
              "name": "startDate",
              "type": "uint256"
            },
            {
              "internalType": "uint256",
              "name": "endDate",
              "type": "uint256"
            },
            {
              "internalType": "enum IGrantRegistry.Status",
              "name": "status",
              "type": "uint8"
            },
            {
              "components": [
                {
                  "internalType": "address[]",
                  "name": "fundingTokens",
                  "type": "address[]"
                },
                {
                  "internalType": "uint256[]",
                  "name": "fundingAmounts",
                  "type": "uint256[]"
                },
                {
                  "internalType": "bool[]",
                  "name": "disbursed",
                  "type": "bool[]"
                }
              ],
              "internalType": "struct IGrantRegistry.Disbursement",
              "name": "disbursements",
              "type": "tuple"
            }
          ],
          "internalType": "struct IGrantRegistry.Grant",
          "name": "grant",
          "type": "tuple"
        }
      ],
      "name": "update",
      "outputs": [],
      "stateMutability": "nonpayable",
      "type": "function"
    }
  ],
  "bytecode": "0x6080604052348015600f57600080fd5b50612d208061001f6000396000f3fe608060405234801561001057600080fd5b506004361061007d5760003560e01c806395bc26731161005b57806395bc2673146100fe5780639628fcd61461011a578063e483ac041461014a578063ef5d6bbb1461017a5761007d565b8063084a3909146100825780630f5fd086146100b2578063496e71a7146100e2575b600080fd5b61009c60048036038101906100979190610ccb565b610196565b6040516100a99190610d40565b60405180910390f35b6100cc60048036038101906100c79190610d5b565b6102b5565b6040516100d99190610d40565b60405180910390f35b6100fc60048036038101906100f79190610dd0565b6102e5565b005b61011860048036038101906101139190610e2c565b61035e565b005b610134600480360381019061012f9190610e2c565b610466565b6040516101419190610e68565b60405180910390f35b610164600480360381019061015f9190610e2c565b6104a3565b60405161017191906113d4565b60405180910390f35b610194600480360381019061018f91906113f6565b6108f3565b005b6000806101a2846102b5565b9050600080600083815260200190815260200160002060000154146101f3576040517f2ea1d25a00000000000000000000000000000000000000000000000000000000815260040160405180910390fd5b826001600083815260200190815260200160002060006101000a81548173ffffffffffffffffffffffffffffffffffffffff021916908373ffffffffffffffffffffffffffffffffffffffff16021790555083600080838152602001908152602001600020818161026491906125eb565b9050508273ffffffffffffffffffffffffffffffffffffffff16817f7d8a701b7360684be43764f73589698768b9d5b4c151cb7673a2014a894ff14360405160405180910390a38091505092915050565b6000816040516020016102c89190612c71565b604051602081830303815290604052805190602001209050919050565b6102ee826109ad565b80600080848152602001908152602001600020818161030d91906125eb565b905050817f929f1a03b38bcab8536a30acaa20b6b680965c40964dd1739be36a19ca7975db8260e00160208101906103459190612c93565b6040516103529190612ccf565b60405180910390a25050565b610367816109ad565b6000808281526020019081526020016000206000808201600090556001820160006101000a81549073ffffffffffffffffffffffffffffffffffffffff02191690556002820160006103b99190610a97565b6003820160006103c99190610a97565b6004820160006103d99190610ad7565b600582016000905560068201600090556007820160006101000a81549060ff021916905560088201600080820160006104129190610af8565b6001820160006104229190610b19565b6002820160006104329190610b3a565b50505050807ff0df655e7c7baa26e56254cef0317ac244dda912ff86ee8b96ade2698f7126c060405160405180910390a250565b60006001600083815260200190815260200160002060009054906101000a900473ffffffffffffffffffffffffffffffffffffffff169050919050565b6104ab610b62565b60008083815260200190815260200160002060405180610120016040529081600082015481526020016001820160009054906101000a900473ffffffffffffffffffffffffffffffffffffffff1673ffffffffffffffffffffffffffffffffffffffff1673ffffffffffffffffffffffffffffffffffffffff168152602001600282018054610539906116d4565b80601f0160208091040260200160405190810160405280929190818152602001828054610565906116d4565b80156105b25780601f10610587576101008083540402835291602001916105b2565b820191906000526020600020905b81548152906001019060200180831161059557829003601f168201915b505050505081526020016003820180546105cb906116d4565b80601f01602080910402602001604051908101604052809291908181526020018280546105f7906116d4565b80156106445780601f1061061957610100808354040283529160200191610644565b820191906000526020600020905b81548152906001019060200180831161062757829003601f168201915b5050505050815260200160048201805480602002602001604051908101604052809291908181526020016000905b8282101561071e578382906000526020600020018054610691906116d4565b80601f01602080910402602001604051908101604052809291908181526020018280546106bd906116d4565b801561070a5780601f106106df5761010080835404028352916020019161070a565b820191906000526020600020905b8154815290600101906020018083116106ed57829003601f168201915b505050505081526020019060010190610672565b50505050815260200160058201548152602001600682015481526020016007820160009054906101000a900460ff16600481111561075f5761075e610ffd565b5b600481111561077157610770610ffd565b5b8152602001600882016040518060600160405290816000820180548060200260200160405190810160405280929190818152602001828054801561080a57602002820191906000526020600020905b8160009054906101000a900473ffffffffffffffffffffffffffffffffffffffff1673ffffffffffffffffffffffffffffffffffffffff16815260200190600101908083116107c0575b505050505081526020016001820180548060200260200160405190810160405280929190818152602001828054801561086257602002820191906000526020600020905b81548152602001906001019080831161084e575b50505050508152602001600282018054806020026020016040519081016040528092919081815260200182805480156108df57602002820191906000526020600020906000905b82829054906101000a900460ff161515815260200190600101906020826000010492830192600103820291508084116108a95790505b505050505081525050815250509050919050565b6108fc826109ad565b806001600084815260200190815260200160002060006101000a81548173ffffffffffffffffffffffffffffffffffffffff021916908373ffffffffffffffffffffffffffffffffffffffff1602179055508073ffffffffffffffffffffffffffffffffffffffff163373ffffffffffffffffffffffffffffffffffffffff16837fef45e4d193d8e9371dcad38a3fb6218c50b2f9922274e95bd69621524652fb1060405160405180910390a45050565b600080600083815260200190815260200160002060000154036109fc576040517f1638498900000000000000000000000000000000000000000000000000000000815260040160405180910390fd5b3373ffffffffffffffffffffffffffffffffffffffff166001600083815260200190815260200160002060009054906101000a900473ffffffffffffffffffffffffffffffffffffffff1673ffffffffffffffffffffffffffffffffffffffff1614610a94576040517fada7940300000000000000000000000000000000000000000000000000000000815260040160405180910390fd5b50565b508054610aa3906116d4565b6000825580601f10610ab55750610ad4565b601f016020900490600052602060002090810190610ad39190610bdc565b5b50565b5080546000825590600052602060002090810190610af59190610bf9565b50565b5080546000825590600052602060002090810190610b169190610bdc565b50565b5080546000825590600052602060002090810190610b379190610bdc565b50565b50805460008255601f016020900490600052602060002090810190610b5f9190610bdc565b50565b60405180610120016040528060008152602001600073ffffffffffffffffffffffffffffffffffffffff168152602001606081526020016060815260200160608152602001600081526020016000815260200160006004811115610bc957610bc8610ffd565b5b8152602001610bd6610c1d565b81525090565b5b80821115610bf5576000816000905550600101610bdd565b5090565b5b80821115610c195760008181610c109190610a97565b50600101610bfa565b5090565b60405180606001604052806060815260200160608152602001606081525090565b600080fd5b600080fd5b600080fd5b60006101208284031215610c6457610c63610c48565b5b81905092915050565b600073ffffffffffffffffffffffffffffffffffffffff82169050919050565b6000610c9882610c6d565b9050919050565b610ca881610c8d565b8114610cb357600080fd5b50565b600081359050610cc581610c9f565b92915050565b60008060408385031215610ce257610ce1610c3e565b5b600083013567ffffffffffffffff811115610d0057610cff610c43565b5b610d0c85828601610c4d565b9250506020610d1d85828601610cb6565b9150509250929050565b6000819050919050565b610d3a81610d27565b82525050565b6000602082019050610d556000830184610d31565b92915050565b600060208284031215610d7157610d70610c3e565b5b600082013567ffffffffffffffff811115610d8f57610d8e610c43565b5b610d9b84828501610c4d565b91505092915050565b610dad81610d27565b8114610db857600080fd5b50565b600081359050610dca81610da4565b92915050565b60008060408385031215610de757610de6610c3e565b5b6000610df585828601610dbb565b925050602083013567ffffffffffffffff811115610e1657610e15610c43565b5b610e2285828601610c4d565b9150509250929050565b600060208284031215610e4257610e41610c3e565b5b6000610e5084828501610dbb565b91505092915050565b610e6281610c8d565b82525050565b6000602082019050610e7d6000830184610e59565b92915050565b6000819050919050565b610e9681610e83565b82525050565b610ea581610c8d565b82525050565b600081519050919050565b600082825260208201905092915050565b60005b83811015610ee5578082015181840152602081019050610eca565b60008484015250505050565b6000601f19601f8301169050919050565b6000610f0d82610eab565b610f178185610eb6565b9350610f27818560208601610ec7565b610f3081610ef1565b840191505092915050565b600081519050919050565b600082825260208201905092915050565b6000819050602082019050919050565b6000610f738383610f02565b905092915050565b6000602082019050919050565b6000610f9382610f3b565b610f9d8185610f46565b935083602082028501610faf85610f57565b8060005b85811015610feb5784840389528151610fcc8582610f67565b9450610fd783610f7b565b925060208a01995050600181019050610fb3565b50829750879550505050505092915050565b7f4e487b7100000000000000000000000000000000000000000000000000000000600052602160045260246000fd5b6005811061103d5761103c610ffd565b5b50565b600081905061104e8261102c565b919050565b600061105e82611040565b9050919050565b61106e81611053565b82525050565b600081519050919050565b600082825260208201905092915050565b6000819050602082019050919050565b60006110ac8383610e9c565b60208301905092915050565b6000602082019050919050565b60006110d082611074565b6110da818561107f565b93506110e583611090565b8060005b838110156111165781516110fd88826110a0565b9750611108836110b8565b9250506001810190506110e9565b5085935050505092915050565b600081519050919050565b600082825260208201905092915050565b6000819050602082019050919050565b600061115b8383610e8d565b60208301905092915050565b6000602082019050919050565b600061117f82611123565b611189818561112e565b93506111948361113f565b8060005b838110156111c55781516111ac888261114f565b97506111b783611167565b925050600181019050611198565b5085935050505092915050565b600081519050919050565b600082825260208201905092915050565b6000819050602082019050919050565b60008115159050919050565b611213816111fe565b82525050565b6000611225838361120a565b60208301905092915050565b6000602082019050919050565b6000611249826111d2565b61125381856111dd565b935061125e836111ee565b8060005b8381101561128f5781516112768882611219565b975061128183611231565b925050600181019050611262565b5085935050505092915050565b600060608301600083015184820360008601526112b982826110c5565b915050602083015184820360208601526112d38282611174565b915050604083015184820360408601526112ed828261123e565b9150508091505092915050565b6000610120830160008301516113136000860182610e8d565b5060208301516113266020860182610e9c565b506040830151848203604086015261133e8282610f02565b915050606083015184820360608601526113588282610f02565b915050608083015184820360808601526113728282610f88565b91505060a083015161138760a0860182610e8d565b5060c083015161139a60c0860182610e8d565b5060e08301516113ad60e0860182611065565b506101008301518482036101008601526113c7828261129c565b9150508091505092915050565b600060208201905081810360008301526113ee81846112fa565b905092915050565b6000806040838503121561140d5761140c610c3e565b5b600061141b85828601610dbb565b925050602061142c85828601610cb6565b9150509250929050565b7f4e487b7100000000000000000000000000000000000000000000000000000000600052600060045260246000fd5b61146e81610e83565b811461147957600080fd5b50565b6000813561148981611465565b80915050919050565b60008160001b9050919050565b60007fffffffffffffffffffffffffffffffffffffffffffffffffffffffffffffffff6114cb84611492565b9350801983169250808416831791505092915050565b6000819050919050565b60006115066115016114fc84610e83565b6114e1565b610e83565b9050919050565b6000819050919050565b611520826114eb565b61153361152c8261150d565b835461149f565b8255505050565b6000813561154781610c9f565b80915050919050565b600073ffffffffffffffffffffffffffffffffffffffff61157084611492565b9350801983169250808416831791505092915050565b60006115a161159c61159784610c6d565b6114e1565b610c6d565b9050919050565b60006115b382611586565b9050919050565b60006115c5826115a8565b9050919050565b6000819050919050565b6115df826115ba565b6115f26115eb826115cc565b8354611550565b8255505050565b600080fd5b600080fd5b600080fd5b60008083356001602003843603038112611625576116246115f9565b5b80840192508235915067ffffffffffffffff821115611647576116466115fe565b5b60208301925060018202360383131561166357611662611603565b5b509250929050565b600082905092915050565b7f4e487b7100000000000000000000000000000000000000000000000000000000600052604160045260246000fd5b7f4e487b7100000000000000000000000000000000000000000000000000000000600052602260045260246000fd5b600060028204905060018216806116ec57607f821691505b6020821081036116ff576116fe6116a5565b5b50919050565b60008190508160005260206000209050919050565b60006020601f8301049050919050565b600082821b905092915050565b6000600883026117677fffffffffffffffffffffffffffffffffffffffffffffffffffffffffffffffff8261172a565b611771868361172a565b95508019841693508086168417925050509392505050565b611792836114eb565b6117a661179e8261150d565b848454611737565b825550505050565b600090565b6117bb6117ae565b6117c6818484611789565b505050565b5b818110156117ea576117df6000826117b3565b6001810190506117cc565b5050565b601f82111561182f5761180081611705565b6118098461171a565b81016020851015611818578190505b61182c6118248561171a565b8301826117cb565b50505b505050565b600082821c905092915050565b600061185260001984600802611834565b1980831691505092915050565b600061186b8383611841565b9150826002028217905092915050565b611885838361166b565b67ffffffffffffffff81111561189e5761189d611676565b5b6118a882546116d4565b6118b38282856117ee565b6000601f8311600181146118e257600084156118d0578287013590505b6118da858261185f565b865550611942565b601f1984166118f086611705565b60005b82811015611918578489013582556001820191506020850194506020810190506118f3565b868310156119355784890135611931601f891682611841565b8355505b6001600288020188555050505b50505050505050565b61195683838361187b565b505050565b60008083356001602003843603038112611978576119776115f9565b5b80840192508235915067ffffffffffffffff82111561199a576119996115fe565b5b6020830192506020820236038313156119b6576119b5611603565b5b509250929050565b6000819050919050565b600081549050919050565b60008190506001806001038301049050919050565b60008190508160005260206000209050919050565b611a2d7fffffffffffffffffffffffffffffffffffffffffffffffffffffffffffffffff83602003600802611834565b815481168255505050565b611a4181611705565b611a4c83825461185f565b8083556000825550505050565b6020841060008114611ab457601f841160018114611a8257611a7b868561185f565b8355611aae565b611a8b83611705565b611aa2611a978761171a565b8201600183016117cb565b611aac8785611a38565b505b50611b01565b611abd82611705565b611ac68661171a565b8101601f87168015611ae057611adf81600184036119fd565b5b611af4611aec8861171a565b8401836117cb565b6001886002021785555050505b5050505050565b68010000000000000000841115611b2257611b21611676565b5b6020831060008114611b6d576020851060008114611b4b57611b44868561185f565b8355611b67565b8360ff1916935083611b5c84611705565b556001866002020183555b50611b77565b6001856002020182555b5050505050565b8054611b89816116d4565b80841115611b9e57611b9d84828486611b08565b5b80841015611bb357611bb284828486611a59565b5b50505050565b5b81811015611bd857611bcd6000826117b3565b600181019050611bba565b5050565b611be7600082611b7e565b50565b60008214611bfb57611bfa611436565b5b611c0481611bdc565b5050565b5b81811015611c2757611c1c600082611bea565b600181019050611c09565b5050565b81831015611c6457611c3c826119d3565b611c45846119d3565b611c4e836119e8565b818101838201611c5e8183611c08565b50505050505b505050565b68010000000000000000821115611c8357611c82611676565b5b611c8c816119c8565b828255611c9a838284611c2b565b505050565b600082905092915050565b611cb48383611c9f565b611cbe8183611c69565b611cc7836119be565b611cd0836119e8565b60005b83811015611d0957611ce58387611608565b611cf081838661194b565b6020850194506001840193505050600181019050611cd3565b50505050505050565b611d1d838383611caa565b505050565b60058110611d2f57600080fd5b50565b60008135611d3f81611d22565b80915050919050565b600060ff611d5584611492565b9350801983169250808416831791505092915050565b6000611d7682611040565b9050919050565b6000819050919050565b611d9082611d6b565b611da3611d9c82611d7d565b8354611d48565b8255505050565b600082356001606003833603038112611dc657611dc56115f9565b5b80830191505092915050565b60008083356001602003843603038112611def57611dee6115f9565b5b80840192508235915067ffffffffffffffff821115611e1157611e106115fe565b5b602083019250602082023603831315611e2d57611e2c611603565b5b509250929050565b600081549050919050565b60008190506001806001038301049050919050565b60008190508160005260206000209050919050565b5b81811015611e8957611e7e6000826117b3565b600181019050611e6b565b5050565b81831015611ec657611e9e82611e40565b611ea784611e40565b611eb083611e55565b818101838201611ec08183611e6a565b50505050505b505050565b68010000000000000000821115611ee557611ee4611676565b5b611eee81611e35565b828255611efc838284611e8d565b505050565b600082905092915050565b6000819050919050565b611f208383611f01565b67ffffffffffffffff811115611f3957611f38611676565b5b611f438183611ecb565b611f4c83611f0c565b611f5583611e55565b6001830460005b81811015611f94576000611f6f8561153a565b611f78816115cc565b8092506020870196505050808285015550600181019050611f5c565b5050505050505050565b611fa9838383611f16565b505050565b60008083356001602003843603038112611fcb57611fca6115f9565b5b80840192508235915067ffffffffffffffff821115611fed57611fec6115fe565b5b60208301925060208202360383131561200957612008611603565b5b509250929050565b600081549050919050565b60008190506001806001038301049050919050565b60008190508160005260206000209050919050565b8183101561207f576120578261201c565b6120608461201c565b61206983612031565b8181018382016120798183611bb9565b50505050505b505050565b6801000000000000000082111561209e5761209d611676565b5b6120a781612011565b8282556120b5838284612046565b505050565b600082905092915050565b6000819050919050565b6120d983836120ba565b67ffffffffffffffff8111156120f2576120f1611676565b5b6120fc8183612084565b612105836120c5565b61210e83612031565b6001830460005b8181101561214d5760006121288561147c565b6121318161150d565b8092506020870196505050808285015550600181019050612115565b5050505050505050565b6121628383836120cf565b505050565b60008083356001602003843603038112612184576121836115f9565b5b80840192508235915067ffffffffffffffff8211156121a6576121a56115fe565b5b6020830192506020820236038313156121c2576121c1611603565b5b509250929050565b600081549050919050565b6000819050602060016020038301049050919050565b60008190508160005260206000209050919050565b5b8181101561221f576122146000826117b3565b600181019050612201565b5050565b8183101561227b57612234826121d5565b61223d846121d5565b612246836121eb565b81810183820160016020890602600081111561226a5761226981600185036119fd565b5b6122748284612200565b5050505050505b505050565b6801000000000000000082111561229a57612299611676565b5b6122a3816121ca565b8282556122b1838284612223565b505050565b600082905092915050565b6122ca816111fe565b81146122d557600080fd5b50565b600081356122e5816122c1565b80915050919050565b6000819050919050565b60006008830261230960ff8261172a565b612313868361172a565b95508019841693508086168417925050509392505050565b6000819050919050565b61233f83836122b6565b67ffffffffffffffff81111561235857612357611676565b5b6123628183612280565b61236b836122ee565b612374836121eb565b6020830460005b818110156123d7576000805b60208110156123c557612399866122d8565b6123a28161232b565b6123b08184600102866122f8565b93506020880197505050600181019050612387565b5080828501555060018101905061237b565b506020810284036000811115612430576000805b82811015612428576123fc866122d8565b6124058161232b565b6124138184600102866122f8565b935060208801975050506001810190506123eb565b508083850155505b5050505050505050565b612445838383612335565b505050565b600081016000830161245c8185611dd2565b612467818386611f9e565b50505050600181016020830161247d8185611fae565b612488818386612157565b50505050600281016040830161249e8185612167565b6124a981838661243a565b505050505050565b6124bb828261244a565b5050565b6000810160008301806124d18161147c565b90506124dd8184611517565b5050506001810160208301806124f28161153a565b90506124fe81846115d6565b50505060028101604083016125138185611608565b61251e81838661194b565b5050505060038101606083016125348185611608565b61253f81838661194b565b505050506004810160808301612555818561195b565b612560818386611d12565b505050506005810160a08301806125768161147c565b90506125828184611517565b5050506006810160c08301806125978161147c565b90506125a38184611517565b5050506007810160e08301806125b881611d32565b90506125c48184611d87565b5050506008810161010083016125da8185611daa565b6125e481846124b1565b5050505050565b6125f582826124bf565b5050565b60008135905061260881611465565b92915050565b600061261d60208401846125f9565b905092915050565b60006126346020840184610cb6565b905092915050565b600080fd5b600080fd5b600080fd5b6000808335600160200384360303811261266857612667612646565b5b83810192508235915060208301925067ffffffffffffffff8211156126905761268f61263c565b5b6001820236038313156126a6576126a5612641565b5b509250929050565b82818337600083830152505050565b60006126c98385610eb6565b93506126d68385846126ae565b6126df83610ef1565b840190509392505050565b6000808335600160200384360303811261270757612706612646565b5b83810192508235915060208301925067ffffffffffffffff82111561272f5761272e61263c565b5b60208202360383131561274557612744612641565b5b509250929050565b600061275a8484846126bd565b90509392505050565b6000602082019050919050565b600061277c8385610f46565b93508360208402850161278e846119be565b8060005b878110156127d45784840389526127a9828461264b565b6127b486828461274d565b95506127bf84612763565b935060208b019a505050600181019050612792565b50829750879450505050509392505050565b6000813590506127f581611d22565b92915050565b600061280a60208401846127e6565b905092915050565b60008235600160600383360303811261282e5761282d612646565b5b82810191505092915050565b6000808335600160200384360303811261285757612856612646565b5b83810192508235915060208301925067ffffffffffffffff82111561287f5761287e61263c565b5b60208202360383131561289557612894612641565b5b509250929050565b6000602082019050919050565b60006128b6838561107f565b93506128c182611f0c565b8060005b858110156128fa576128d78284612625565b6128e188826110a0565b97506128ec8361289d565b9250506001810190506128c5565b5085925050509392505050565b6000808335600160200384360303811261292457612923612646565b5b83810192508235915060208301925067ffffffffffffffff82111561294c5761294b61263c565b5b60208202360383131561296257612961612641565b5b509250929050565b600080fd5b82818337505050565b6000612984838561112e565b93507f07ffffffffffffffffffffffffffffffffffffffffffffffffffffffffffffff8311156129b7576129b661296a565b5b6020830292506129c883858461296f565b82840190509392505050565b600080833560016020038436030381126129f1576129f0612646565b5b83810192508235915060208301925067ffffffffffffffff821115612a1957612a1861263c565b5b602082023603831315612a2f57612a2e612641565b5b509250929050565b600081359050612a46816122c1565b92915050565b6000612a5b6020840184612a37565b905092915050565b6000602082019050919050565b6000612a7c83856111dd565b9350612a87826122ee565b8060005b85811015612ac057612a9d8284612a4c565b612aa78882611219565b9750612ab283612a63565b925050600181019050612a8b565b5085925050509392505050565b600060608301612ae0600084018461283a565b8583036000870152612af38382846128aa565b92505050612b046020840184612907565b8583036020870152612b17838284612978565b92505050612b2860408401846129d4565b8583036040870152612b3b838284612a70565b925050508091505092915050565b60006101208301612b5d600084018461260e565b612b6a6000860182610e8d565b50612b786020840184612625565b612b856020860182610e9c565b50612b93604084018461264b565b8583036040870152612ba68382846126bd565b92505050612bb7606084018461264b565b8583036060870152612bca8382846126bd565b92505050612bdb60808401846126ea565b8583036080870152612bee838284612770565b92505050612bff60a084018461260e565b612c0c60a0860182610e8d565b50612c1a60c084018461260e565b612c2760c0860182610e8d565b50612c3560e08401846127fb565b612c4260e0860182611065565b50612c51610100840184612812565b848203610100860152612c648282612acd565b9150508091505092915050565b60006020820190508181036000830152612c8b8184612b49565b905092915050565b600060208284031215612ca957612ca8610c3e565b5b6000612cb7848285016127e6565b91505092915050565b612cc981611053565b82525050565b6000602082019050612ce46000830184612cc0565b9291505056fea264697066735822122095d6b7a07521e0b5b491d908803405f477a21eb26f7e362b22f9c025207b06a164736f6c63430008190033",
  "linkReferences": {},
  "deployedLinkReferences": {}
}